{
  "contractName": "Gobang",
  "abi": [
    {
      "inputs": [],
      "payable": false,
      "stateMutability": "nonpayable",
      "type": "constructor"
    },
    {
      "constant": false,
      "inputs": [],
      "name": "joinGame",
      "outputs": [],
      "payable": true,
      "stateMutability": "payable",
      "type": "function"
    },
    {
      "constant": false,
      "inputs": [
        {
          "name": "x",
          "type": "int8"
        },
        {
          "name": "y",
          "type": "int8"
        }
      ],
      "name": "oneStep",
      "outputs": [
        {
          "name": "",
          "type": "address"
        }
      ],
      "payable": false,
      "stateMutability": "nonpayable",
      "type": "function"
    },
    {
      "constant": true,
      "inputs": [],
      "name": "getNewestState",
      "outputs": [
        {
          "name": "",
          "type": "bool"
        },
        {
          "name": "",
          "type": "int8"
        },
        {
          "name": "",
          "type": "int8"
        },
        {
          "name": "",
          "type": "int8"
        },
        {
          "name": "",
          "type": "int8"
        }
      ],
      "payable": false,
      "stateMutability": "view",
      "type": "function"
    },
    {
      "constant": false,
      "inputs": [],
      "name": "getMyMoney",
      "outputs": [],
      "payable": false,
      "stateMutability": "nonpayable",
      "type": "function"
    }
  ],
  "bytecode": "0x6080604052670de0b6b3a7640000600360006101000a8154816fffffffffffffffffffffffffffffffff02191690836fffffffffffffffffffffffffffffffff1602179055506001600360106101000a81548160ff021916908315150217905550608060405190810160405280604080519081016040528060408051908101604052807fffffffffffffffffffffffffffffffffffffffffffffffffffffffffffffffff60000b60000b81526020016000800b60000b81525081526020016040805190810160405280600160000b60000b81526020016000800b60000b8152508152508152602001604080519081016040528060408051908101604052806000800b60000b81526020017fffffffffffffffffffffffffffffffffffffffffffffffffffffffffffffffff60000b60000b815250815260200160408051908101604052806000800b60000b8152602001600160000b60000b8152508152508152602001604080519081016040528060408051908101604052807fffffffffffffffffffffffffffffffffffffffffffffffffffffffffffffffff60000b60000b81526020017fffffffffffffffffffffffffffffffffffffffffffffffffffffffffffffffff60000b60000b81525081526020016040805190810160405280600160000b60000b8152602001600160000b60000b815250815250815260200160408051908101604052806040805190810160405280600160000b60000b81526020017fffffffffffffffffffffffffffffffffffffffffffffffffffffffffffffffff60000b60000b815250815260200160408051908101604052807fffffffffffffffffffffffffffffffffffffffffffffffffffffffffffffffff60000b60000b8152602001600160000b60000b8152508152508152506015906004620002aa92919062000591565b50348015620002b857600080fd5b50620002d262000318640100000000026401000000009004565b336000806101000a81548173ffffffffffffffffffffffffffffffffffffffff021916908373ffffffffffffffffffffffffffffffffffffffff160217905550620007a3565b606060405190810160405280600073ffffffffffffffffffffffffffffffffffffffff1681526020017fffffffffffffffffffffffffffffffffffffffffffffffffffffffffffffffff60000b81526020017fffffffffffffffffffffffffffffffffffffffffffffffffffffffffffffffff60000b815250600160008201518160000160006101000a81548173ffffffffffffffffffffffffffffffffffffffff021916908373ffffffffffffffffffffffffffffffffffffffff16021790555060208201518160000160146101000a81548160ff021916908360000b60ff16021790555060408201518160000160156101000a81548160ff021916908360000b60ff160217905550905050606060405190810160405280600073ffffffffffffffffffffffffffffffffffffffff1681526020017fffffffffffffffffffffffffffffffffffffffffffffffffffffffffffffffff60000b81526020017fffffffffffffffffffffffffffffffffffffffffffffffffffffffffffffffff60000b815250600260008201518160000160006101000a81548173ffffffffffffffffffffffffffffffffffffffff021916908373ffffffffffffffffffffffffffffffffffffffff16021790555060208201518160000160146101000a81548160ff021916908360000b60ff16021790555060408201518160000160156101000a81548160ff021916908360000b60ff1602179055509050506001600360106101000a81548160ff0219169083151502179055506000601360006101000a81548173ffffffffffffffffffffffffffffffffffffffff021916908373ffffffffffffffffffffffffffffffffffffffff160217905550565b8260046002028101928215620005d6579160200282015b82811115620005d557825182906002620005c4929190620005e9565b5091602001919060020190620005a8565b5b509050620005e591906200063e565b5090565b82600281019282156200062b579160200282015b828111156200062a57825182906002620006199291906200066f565b5091602001919060010190620005fd565b5b5090506200063a919062000713565b5090565b6200066c91905b808211156200066857600081816200065e919062000744565b5060020162000645565b5090565b90565b826002601f01602090048101928215620007005791602002820160005b83821115620006cf57835183826101000a81548160ff021916908360000b60ff16021790555092602001926001016020816000010492830192600103026200068c565b8015620006fe5782816101000a81549060ff0219169055600101602081600001049283019260010302620006cf565b505b5090506200070f919062000769565b5090565b6200074191905b808211156200073d57600081816200073391906200079c565b506001016200071a565b5090565b90565b50600081816200075591906200079c565b5060010160006200076791906200079c565b565b6200079991905b808211156200079557600081816101000a81549060ff02191690555060010162000770565b5090565b90565b5060009055565b61107480620007b36000396000f300608060405260043610610062576000357c0100000000000000000000000000000000000000000000000000000000900463ffffffff168063422175e7146100675780639355cda3146100e4578063d4f77b1c14610147578063d7c9a0e314610151575b600080fd5b34801561007357600080fd5b506100a2600480360381019080803560000b9060200190929190803560000b9060200190929190505050610168565b604051808273ffffffffffffffffffffffffffffffffffffffff1673ffffffffffffffffffffffffffffffffffffffff16815260200191505060405180910390f35b3480156100f057600080fd5b506100f961088c565b60405180861515151581526020018560000b60000b81526020018460000b60000b81526020018360000b60000b81526020018260000b60000b81526020019550505050505060405180910390f35b61014f610901565b005b34801561015d57600080fd5b50610166610aa4565b005b600080600080600360109054906101000a900460ff1680156101da57503373ffffffffffffffffffffffffffffffffffffffff16600160000160009054906101000a900473ffffffffffffffffffffffffffffffffffffffff1673ffffffffffffffffffffffffffffffffffffffff16145b9250600360109054906101000a900460ff1615801561024957503373ffffffffffffffffffffffffffffffffffffffff16600260000160009054906101000a900473ffffffffffffffffffffffffffffffffffffffff1673ffffffffffffffffffffffffffffffffffffffff16145b9150600060048760000b600f8110151561025f57fe5b018660000b600f8110151561027057fe5b602091828204019190069054906101000a900460ff1660ff1614801561029b5750828061029a5750815b5b15156102a657600080fd5b821561033857600160048760000b600f811015156102c057fe5b018660000b600f811015156102d157fe5b602091828204019190066101000a81548160ff021916908360ff16021790555085600160000160146101000a81548160ff021916908360000b60ff16021790555084600160000160156101000a81548160ff021916908360000b60ff1602179055506103c7565b81156103c657600260048760000b600f8110151561035257fe5b018660000b600f8110151561036357fe5b602091828204019190066101000a81548160ff021916908360ff16021790555085600260000160146101000a81548160ff021916908360000b60ff16021790555084600260000160156101000a81548160ff021916908360000b60ff1602179055505b5b6103d18686610bd9565b9050801561085457600360109054906101000a900460ff161561060a57600160000160009054906101000a900473ffffffffffffffffffffffffffffffffffffffff16601360006101000a81548173ffffffffffffffffffffffffffffffffffffffff021916908373ffffffffffffffffffffffffffffffffffffffff160217905550600360009054906101000a90046fffffffffffffffffffffffffffffffff1660146000600260000160009054906101000a900473ffffffffffffffffffffffffffffffffffffffff1673ffffffffffffffffffffffffffffffffffffffff1673ffffffffffffffffffffffffffffffffffffffff16815260200190815260200160002060008282829054906101000a90046fffffffffffffffffffffffffffffffff160392506101000a8154816fffffffffffffffffffffffffffffffff02191690836fffffffffffffffffffffffffffffffff160217905550600360009054906101000a90046fffffffffffffffffffffffffffffffff1660146000601360009054906101000a900473ffffffffffffffffffffffffffffffffffffffff1673ffffffffffffffffffffffffffffffffffffffff1673ffffffffffffffffffffffffffffffffffffffff16815260200190815260200160002060008282829054906101000a90046fffffffffffffffffffffffffffffffff160192506101000a8154816fffffffffffffffffffffffffffffffff02191690836fffffffffffffffffffffffffffffffff160217905550610822565b600260000160009054906101000a900473ffffffffffffffffffffffffffffffffffffffff16601360006101000a81548173ffffffffffffffffffffffffffffffffffffffff021916908373ffffffffffffffffffffffffffffffffffffffff160217905550600360009054906101000a90046fffffffffffffffffffffffffffffffff1660146000600160000160009054906101000a900473ffffffffffffffffffffffffffffffffffffffff1673ffffffffffffffffffffffffffffffffffffffff1673ffffffffffffffffffffffffffffffffffffffff16815260200190815260200160002060008282829054906101000a90046fffffffffffffffffffffffffffffffff160392506101000a8154816fffffffffffffffffffffffffffffffff02191690836fffffffffffffffffffffffffffffffff160217905550600360009054906101000a90046fffffffffffffffffffffffffffffffff1660146000601360009054906101000a900473ffffffffffffffffffffffffffffffffffffffff1673ffffffffffffffffffffffffffffffffffffffff1673ffffffffffffffffffffffffffffffffffffffff16815260200190815260200160002060008282829054906101000a90046fffffffffffffffffffffffffffffffff160192506101000a8154816fffffffffffffffffffffffffffffffff02191690836fffffffffffffffffffffffffffffffff1602179055505b61082a610dcf565b601360009054906101000a900473ffffffffffffffffffffffffffffffffffffffff169350610883565b600360109054906101000a900460ff1615600360106101000a81548160ff021916908315150217905550600093505b50505092915050565b6000806000806000600360109054906101000a900460ff16600160000160149054906101000a900460000b600160000160159054906101000a900460000b600260000160149054906101000a900460000b600260000160159054906101000a900460000b945094509450945094509091929394565b6000600160000160009054906101000a900473ffffffffffffffffffffffffffffffffffffffff1673ffffffffffffffffffffffffffffffffffffffff16148061098657506000600260000160009054906101000a900473ffffffffffffffffffffffffffffffffffffffff1673ffffffffffffffffffffffffffffffffffffffff16145b151561099157600080fd5b600360009054906101000a90046fffffffffffffffffffffffffffffffff166fffffffffffffffffffffffffffffffff1634101515156109d057600080fd5b6000600160000160009054906101000a900473ffffffffffffffffffffffffffffffffffffffff1673ffffffffffffffffffffffffffffffffffffffff161415610a5d5733600160000160006101000a81548173ffffffffffffffffffffffffffffffffffffffff021916908373ffffffffffffffffffffffffffffffffffffffff160217905550610aa2565b33600260000160006101000a81548173ffffffffffffffffffffffffffffffffffffffff021916908373ffffffffffffffffffffffffffffffffffffffff1602179055505b565b6000601460003373ffffffffffffffffffffffffffffffffffffffff1673ffffffffffffffffffffffffffffffffffffffff16815260200190815260200160002060009054906101000a90046fffffffffffffffffffffffffffffffff166fffffffffffffffffffffffffffffffff169050600081118015610b3d5750803073ffffffffffffffffffffffffffffffffffffffff163110155b8015610b8457506000600160000160009054906101000a900473ffffffffffffffffffffffffffffffffffffffff1673ffffffffffffffffffffffffffffffffffffffff16145b1515610b8f57600080fd5b3373ffffffffffffffffffffffffffffffffffffffff166108fc829081150290604051600060405180830381858888f19350505050158015610bd5573d6000803e3d6000fd5b5050565b60008060008060008060008060009650899550889450600093505b6004841015610db95760019250600091505b6002821015610d9257600190505b8015610d7f57601584600481101515610c2957fe5b6002020182600281101515610c3a57fe5b016000600281101515610c4957fe5b602091828204019190069054906101000a900460000b86019550601584600481101515610c7257fe5b6002020182600281101515610c8357fe5b016001600281101515610c9257fe5b602091828204019190069054906101000a900460000b8501945060048a60000b600f81101515610cbe57fe5b018960000b600f81101515610ccf57fe5b602091828204019190069054906101000a900460ff1660ff1660048760000b600f81101515610cfa57fe5b018660000b600f81101515610d0b57fe5b602091828204019190069054906101000a900460ff1660ff16148015610d35575060008660000b12155b8015610d445750600f8660000b125b8015610d54575060008560000b12155b8015610d635750600f8560000b125b15610d75578280600101935050610d7a565b600090505b610c14565b8995508894508180600101925050610c06565b60058360ff16101515610da85760019650610db9565b600096508380600101945050610bf4565b60018760ff161497505050505050505092915050565b606060405190810160405280600073ffffffffffffffffffffffffffffffffffffffff1681526020017fffffffffffffffffffffffffffffffffffffffffffffffffffffffffffffffff60000b81526020017fffffffffffffffffffffffffffffffffffffffffffffffffffffffffffffffff60000b815250600160008201518160000160006101000a81548173ffffffffffffffffffffffffffffffffffffffff021916908373ffffffffffffffffffffffffffffffffffffffff16021790555060208201518160000160146101000a81548160ff021916908360000b60ff16021790555060408201518160000160156101000a81548160ff021916908360000b60ff160217905550905050606060405190810160405280600073ffffffffffffffffffffffffffffffffffffffff1681526020017fffffffffffffffffffffffffffffffffffffffffffffffffffffffffffffffff60000b81526020017fffffffffffffffffffffffffffffffffffffffffffffffffffffffffffffffff60000b815250600260008201518160000160006101000a81548173ffffffffffffffffffffffffffffffffffffffff021916908373ffffffffffffffffffffffffffffffffffffffff16021790555060208201518160000160146101000a81548160ff021916908360000b60ff16021790555060408201518160000160156101000a81548160ff021916908360000b60ff1602179055509050506001600360106101000a81548160ff0219169083151502179055506000601360006101000a81548173ffffffffffffffffffffffffffffffffffffffff021916908373ffffffffffffffffffffffffffffffffffffffff1602179055505600a165627a7a7230582057903442d835a90dd752d5a873c9f230834ac3d707c43e367f5a3d860ae0fded0029",
  "source": "pragma solidity ^0.4.17;\n\ncontract Gobang {\n    address owner;\n\n    struct Player {\n    address id;\n    int8 lastX;\n    int8 lastY;\n    }\n    Player playerBlack;\n    Player playerWhite;\n    uint128 BET_MONEY = 1 ether;\n    bool isBlackPlay = true;\n    uint8[15][15] chessboard;\n    address winner;\n    mapping(address => uint128) playersMoney;\n    // 三维数组记录横向，纵向，左斜，右斜的移动\n    int8[2][2][4] dir = [\n    [[int8(-1), int8(0)], [int8(1), int8(0)]],            // 横向\n    [[int8(0), int8(-1)], [int8(0), int8(1)]],            // 竖着\n    [[int8(-1), int8(-1)], [int8(1), int8(1)]],            // 左斜\n    [[int8(1), int8(-1)], [int8(-1), int8(1)]]            // 右斜\n    ];\n\n\nconstructor() public {\ninitGame();\nowner = msg.sender;\n}\n\nfunction joinGame() public payable {\nrequire(playerBlack.id == 0x0 || playerWhite.id == 0x0);\nrequire(msg.value >= BET_MONEY);\nif (playerBlack.id == 0x0) {\nplayerBlack.id = msg.sender;\n} else {\nplayerWhite.id = msg.sender;\n}\n}\n\nfunction oneStep(int8 x, int8 y) public returns (address) {\nbool isBlackStep = isBlackPlay && playerBlack.id == msg.sender;\nbool isWhiteStep = !isBlackPlay && playerWhite.id == msg.sender;\nrequire(chessboard[uint(x)][uint(y)] == 0 && (isBlackStep || isWhiteStep));\n\nif (isBlackStep) {\nchessboard[uint(x)][uint(y)] = 1;\nplayerBlack.lastX = x;\nplayerBlack.lastY = y;\n}\nelse if (isWhiteStep) {\nchessboard[uint(x)][uint(y)] = 2;\nplayerWhite.lastX = x;\nplayerWhite.lastY = y;\n}\n\nbool isWin = checkWinner(x, y);\nif (isWin) {\nif (isBlackPlay) {\nwinner = playerBlack.id;\nplayersMoney[playerWhite.id] -= BET_MONEY;\nplayersMoney[winner] += BET_MONEY;\n} else {\nwinner = playerWhite.id;\nplayersMoney[playerBlack.id] -= BET_MONEY;\nplayersMoney[winner] += BET_MONEY;\n}\ninitGame();\nreturn winner;\n}\nisBlackPlay = !isBlackPlay;\nreturn 0x0;\n}\n\nfunction checkWinner(int8 x, int8 y) internal view returns (bool) {\nuint8 max = 0;\nint8 tempX = x;\nint8 tempY = y;\nfor (uint i = 0; i < 4; i++) {\nuint8 count = 1;\n//j为0,1分别为棋子的两边方向，比如对于横向的时候，j=0,表示下棋位子的左边，j=1的时候表示右边\nfor (uint j = 0; j < 2; j++) {\nbool flag = true;\n// while语句中为一直向某一个方向遍历\n// 有相同颜色的棋子的时候，Count++\n// 否则置flag为false，结束该该方向的遍历\nwhile (flag) {\ntempX = tempX + dir[i][j][0];\ntempY = tempY + dir[i][j][1];\nif (chessboard[uint(tempX)][uint(tempY)] == chessboard[uint(x)][uint(y)]\n&& tempX>=0 &&tempX<15 && tempY>=0 && tempY<15) {\ncount++;\n} else{\nflag = false;\n}\n}\ntempX = x;\ntempY = y;\n}\nif (count >= 5) {\nmax = 1;\nbreak;\n} else {\nmax = 0;\n}\n}\nreturn max == 1;\n}\n\nfunction getNewestState() public view returns (bool, int8, int8, int8, int8) {\nreturn (isBlackPlay, playerBlack.lastX, playerBlack.lastY, playerWhite.lastX, playerWhite.lastY);\n}\n\nfunction getMyMoney() public {\nuint senderMoney = playersMoney[msg.sender];\nrequire(senderMoney > 0 && address(this).balance >= senderMoney && playerBlack.id == 0x0);\naddress(msg.sender).transfer(senderMoney);\n}\n\nfunction initGame() private {\nplayerBlack = Player(0x0, -1, -1);\nplayerWhite = Player(0x0, -1, -1);\nisBlackPlay = true;\nwinner = 0x0;\n}\n}\n",
  "sourcePath": "/Users/wangguigen/git/Gobang/contracts/Gobang.sol",
  "compiler": {
    "name": "solc",
    "version": "0.4.23+commit.124ca40d.Emscripten.clang"
  },
  "schemaVersion": "2.0.0",
  "updatedAt": "2018-09-19T15:27:34.374Z"
}