{
  "contractName": "Gobang",
  "abi": [
    {
      "inputs": [],
      "payable": false,
      "stateMutability": "nonpayable",
      "type": "constructor"
    },
    {
      "constant": false,
      "inputs": [],
      "name": "joinGame",
      "outputs": [],
      "payable": true,
      "stateMutability": "payable",
      "type": "function"
    },
    {
      "constant": false,
      "inputs": [
        {
          "name": "x",
          "type": "int8"
        },
        {
          "name": "y",
          "type": "int8"
        }
      ],
      "name": "oneStep",
      "outputs": [
        {
          "name": "",
          "type": "address"
        }
      ],
      "payable": false,
      "stateMutability": "nonpayable",
      "type": "function"
    },
    {
      "constant": true,
      "inputs": [],
      "name": "getNewestState",
      "outputs": [
        {
          "name": "",
          "type": "bool"
        },
        {
          "name": "",
          "type": "bool"
        },
        {
          "name": "",
          "type": "int8"
        },
        {
          "name": "",
          "type": "int8"
        },
        {
          "name": "",
          "type": "int8"
        },
        {
          "name": "",
          "type": "int8"
        }
      ],
      "payable": false,
      "stateMutability": "view",
      "type": "function"
    },
    {
      "constant": false,
      "inputs": [],
      "name": "getMyMoney",
      "outputs": [],
      "payable": false,
      "stateMutability": "nonpayable",
      "type": "function"
    }
  ],
  "bytecode": "0x6080604052670de0b6b3a7640000600360006101000a8154816fffffffffffffffffffffffffffffffff02191690836fffffffffffffffffffffffffffffffff1602179055506001600360106101000a81548160ff0219169083151502179055506000600360116101000a81548160ff021916908315150217905550608060405190810160405280604080519081016040528060408051908101604052807fffffffffffffffffffffffffffffffffffffffffffffffffffffffffffffffff60000b60000b81526020016000800b60000b81525081526020016040805190810160405280600160000b60000b81526020016000800b60000b8152508152508152602001604080519081016040528060408051908101604052806000800b60000b81526020017fffffffffffffffffffffffffffffffffffffffffffffffffffffffffffffffff60000b60000b815250815260200160408051908101604052806000800b60000b8152602001600160000b60000b8152508152508152602001604080519081016040528060408051908101604052807fffffffffffffffffffffffffffffffffffffffffffffffffffffffffffffffff60000b60000b81526020017fffffffffffffffffffffffffffffffffffffffffffffffffffffffffffffffff60000b60000b81525081526020016040805190810160405280600160000b60000b8152602001600160000b60000b815250815250815260200160408051908101604052806040805190810160405280600160000b60000b81526020017fffffffffffffffffffffffffffffffffffffffffffffffffffffffffffffffff60000b60000b815250815260200160408051908101604052807fffffffffffffffffffffffffffffffffffffffffffffffffffffffffffffffff60000b60000b8152602001600160000b60000b8152508152508152506015906004620002c5929190620005c7565b50348015620002d357600080fd5b50620002ed62000333640100000000026401000000009004565b336000806101000a81548173ffffffffffffffffffffffffffffffffffffffff021916908373ffffffffffffffffffffffffffffffffffffffff160217905550620007d9565b606060405190810160405280600073ffffffffffffffffffffffffffffffffffffffff1681526020017fffffffffffffffffffffffffffffffffffffffffffffffffffffffffffffffff60000b81526020017fffffffffffffffffffffffffffffffffffffffffffffffffffffffffffffffff60000b815250600160008201518160000160006101000a81548173ffffffffffffffffffffffffffffffffffffffff021916908373ffffffffffffffffffffffffffffffffffffffff16021790555060208201518160000160146101000a81548160ff021916908360000b60ff16021790555060408201518160000160156101000a81548160ff021916908360000b60ff160217905550905050606060405190810160405280600073ffffffffffffffffffffffffffffffffffffffff1681526020017fffffffffffffffffffffffffffffffffffffffffffffffffffffffffffffffff60000b81526020017fffffffffffffffffffffffffffffffffffffffffffffffffffffffffffffffff60000b815250600260008201518160000160006101000a81548173ffffffffffffffffffffffffffffffffffffffff021916908373ffffffffffffffffffffffffffffffffffffffff16021790555060208201518160000160146101000a81548160ff021916908360000b60ff16021790555060408201518160000160156101000a81548160ff021916908360000b60ff1602179055509050506001600360106101000a81548160ff0219169083151502179055506000600360116101000a81548160ff0219169083151502179055506000601360006101000a81548173ffffffffffffffffffffffffffffffffffffffff021916908373ffffffffffffffffffffffffffffffffffffffff160217905550565b82600460020281019282156200060c579160200282015b828111156200060b57825182906002620005fa9291906200061f565b5091602001919060020190620005de565b5b5090506200061b919062000674565b5090565b826002810192821562000661579160200282015b8281111562000660578251829060026200064f929190620006a5565b509160200191906001019062000633565b5b50905062000670919062000749565b5090565b620006a291905b808211156200069e57600081816200069491906200077a565b506002016200067b565b5090565b90565b826002601f01602090048101928215620007365791602002820160005b838211156200070557835183826101000a81548160ff021916908360000b60ff1602179055509260200192600101602081600001049283019260010302620006c2565b8015620007345782816101000a81549060ff021916905560010160208160000104928301926001030262000705565b505b5090506200074591906200079f565b5090565b6200077791905b80821115620007735760008181620007699190620007d2565b5060010162000750565b5090565b90565b50600081816200078b9190620007d2565b5060010160006200079d9190620007d2565b565b620007cf91905b80821115620007cb57600081816101000a81549060ff021916905550600101620007a6565b5090565b90565b5060009055565b61115780620007e96000396000f300608060405260043610610062576000357c0100000000000000000000000000000000000000000000000000000000900463ffffffff168063422175e7146100675780639355cda3146100e4578063d4f77b1c14610152578063d7c9a0e31461015c575b600080fd5b34801561007357600080fd5b506100a2600480360381019080803560000b9060200190929190803560000b9060200190929190505050610173565b604051808273ffffffffffffffffffffffffffffffffffffffff1673ffffffffffffffffffffffffffffffffffffffff16815260200191505060405180910390f35b3480156100f057600080fd5b506100f9610897565b6040518087151515158152602001861515151581526020018560000b60000b81526020018460000b60000b81526020018360000b60000b81526020018260000b60000b8152602001965050505050505060405180910390f35b61015a610920565b005b34801561016857600080fd5b50610171610b6c565b005b600080600080600360109054906101000a900460ff1680156101e557503373ffffffffffffffffffffffffffffffffffffffff16600160000160009054906101000a900473ffffffffffffffffffffffffffffffffffffffff1673ffffffffffffffffffffffffffffffffffffffff16145b9250600360109054906101000a900460ff1615801561025457503373ffffffffffffffffffffffffffffffffffffffff16600260000160009054906101000a900473ffffffffffffffffffffffffffffffffffffffff1673ffffffffffffffffffffffffffffffffffffffff16145b9150600060048760000b600f8110151561026a57fe5b018660000b600f8110151561027b57fe5b602091828204019190069054906101000a900460ff1660ff161480156102a6575082806102a55750815b5b15156102b157600080fd5b821561034357600160048760000b600f811015156102cb57fe5b018660000b600f811015156102dc57fe5b602091828204019190066101000a81548160ff021916908360ff16021790555085600160000160146101000a81548160ff021916908360000b60ff16021790555084600160000160156101000a81548160ff021916908360000b60ff1602179055506103d2565b81156103d157600260048760000b600f8110151561035d57fe5b018660000b600f8110151561036e57fe5b602091828204019190066101000a81548160ff021916908360ff16021790555085600260000160146101000a81548160ff021916908360000b60ff16021790555084600260000160156101000a81548160ff021916908360000b60ff1602179055505b5b6103dc8686610ca1565b9050801561085f57600360109054906101000a900460ff161561061557600160000160009054906101000a900473ffffffffffffffffffffffffffffffffffffffff16601360006101000a81548173ffffffffffffffffffffffffffffffffffffffff021916908373ffffffffffffffffffffffffffffffffffffffff160217905550600360009054906101000a90046fffffffffffffffffffffffffffffffff1660146000600260000160009054906101000a900473ffffffffffffffffffffffffffffffffffffffff1673ffffffffffffffffffffffffffffffffffffffff1673ffffffffffffffffffffffffffffffffffffffff16815260200190815260200160002060008282829054906101000a90046fffffffffffffffffffffffffffffffff160392506101000a8154816fffffffffffffffffffffffffffffffff02191690836fffffffffffffffffffffffffffffffff160217905550600360009054906101000a90046fffffffffffffffffffffffffffffffff1660146000601360009054906101000a900473ffffffffffffffffffffffffffffffffffffffff1673ffffffffffffffffffffffffffffffffffffffff1673ffffffffffffffffffffffffffffffffffffffff16815260200190815260200160002060008282829054906101000a90046fffffffffffffffffffffffffffffffff160192506101000a8154816fffffffffffffffffffffffffffffffff02191690836fffffffffffffffffffffffffffffffff16021790555061082d565b600260000160009054906101000a900473ffffffffffffffffffffffffffffffffffffffff16601360006101000a81548173ffffffffffffffffffffffffffffffffffffffff021916908373ffffffffffffffffffffffffffffffffffffffff160217905550600360009054906101000a90046fffffffffffffffffffffffffffffffff1660146000600160000160009054906101000a900473ffffffffffffffffffffffffffffffffffffffff1673ffffffffffffffffffffffffffffffffffffffff1673ffffffffffffffffffffffffffffffffffffffff16815260200190815260200160002060008282829054906101000a90046fffffffffffffffffffffffffffffffff160392506101000a8154816fffffffffffffffffffffffffffffffff02191690836fffffffffffffffffffffffffffffffff160217905550600360009054906101000a90046fffffffffffffffffffffffffffffffff1660146000601360009054906101000a900473ffffffffffffffffffffffffffffffffffffffff1673ffffffffffffffffffffffffffffffffffffffff1673ffffffffffffffffffffffffffffffffffffffff16815260200190815260200160002060008282829054906101000a90046fffffffffffffffffffffffffffffffff160192506101000a8154816fffffffffffffffffffffffffffffffff02191690836fffffffffffffffffffffffffffffffff1602179055505b610835610e97565b601360009054906101000a900473ffffffffffffffffffffffffffffffffffffffff16935061088e565b600360109054906101000a900460ff1615600360106101000a81548160ff021916908315150217905550600093505b50505092915050565b600080600080600080600360119054906101000a900460ff16600360109054906101000a900460ff16600160000160149054906101000a900460000b600160000160159054906101000a900460000b600260000160149054906101000a900460000b600260000160159054906101000a900460000b955095509550955095509550909192939495565b6000600160000160009054906101000a900473ffffffffffffffffffffffffffffffffffffffff1673ffffffffffffffffffffffffffffffffffffffff1614806109a557506000600260000160009054906101000a900473ffffffffffffffffffffffffffffffffffffffff1673ffffffffffffffffffffffffffffffffffffffff16145b15156109b057600080fd5b600360009054906101000a90046fffffffffffffffffffffffffffffffff166fffffffffffffffffffffffffffffffff1634101515156109ef57600080fd5b6000600160000160009054906101000a900473ffffffffffffffffffffffffffffffffffffffff1673ffffffffffffffffffffffffffffffffffffffff161415610a7c5733600160000160006101000a81548173ffffffffffffffffffffffffffffffffffffffff021916908373ffffffffffffffffffffffffffffffffffffffff160217905550610ac1565b33600260000160006101000a81548173ffffffffffffffffffffffffffffffffffffffff021916908373ffffffffffffffffffffffffffffffffffffffff1602179055505b6000600160000160009054906101000a900473ffffffffffffffffffffffffffffffffffffffff1673ffffffffffffffffffffffffffffffffffffffff1614158015610b4957506000600260000160009054906101000a900473ffffffffffffffffffffffffffffffffffffffff1673ffffffffffffffffffffffffffffffffffffffff1614155b15610b6a576001600360116101000a81548160ff0219169083151502179055505b565b6000601460003373ffffffffffffffffffffffffffffffffffffffff1673ffffffffffffffffffffffffffffffffffffffff16815260200190815260200160002060009054906101000a90046fffffffffffffffffffffffffffffffff166fffffffffffffffffffffffffffffffff169050600081118015610c055750803073ffffffffffffffffffffffffffffffffffffffff163110155b8015610c4c57506000600160000160009054906101000a900473ffffffffffffffffffffffffffffffffffffffff1673ffffffffffffffffffffffffffffffffffffffff16145b1515610c5757600080fd5b3373ffffffffffffffffffffffffffffffffffffffff166108fc829081150290604051600060405180830381858888f19350505050158015610c9d573d6000803e3d6000fd5b5050565b60008060008060008060008060009650899550889450600093505b6004841015610e815760019250600091505b6002821015610e5a57600190505b8015610e4757601584600481101515610cf157fe5b6002020182600281101515610d0257fe5b016000600281101515610d1157fe5b602091828204019190069054906101000a900460000b86019550601584600481101515610d3a57fe5b6002020182600281101515610d4b57fe5b016001600281101515610d5a57fe5b602091828204019190069054906101000a900460000b8501945060048a60000b600f81101515610d8657fe5b018960000b600f81101515610d9757fe5b602091828204019190069054906101000a900460ff1660ff1660048760000b600f81101515610dc257fe5b018660000b600f81101515610dd357fe5b602091828204019190069054906101000a900460ff1660ff16148015610dfd575060008660000b12155b8015610e0c5750600f8660000b125b8015610e1c575060008560000b12155b8015610e2b5750600f8560000b125b15610e3d578280600101935050610e42565b600090505b610cdc565b8995508894508180600101925050610cce565b60058360ff16101515610e705760019650610e81565b600096508380600101945050610cbc565b60018760ff161497505050505050505092915050565b606060405190810160405280600073ffffffffffffffffffffffffffffffffffffffff1681526020017fffffffffffffffffffffffffffffffffffffffffffffffffffffffffffffffff60000b81526020017fffffffffffffffffffffffffffffffffffffffffffffffffffffffffffffffff60000b815250600160008201518160000160006101000a81548173ffffffffffffffffffffffffffffffffffffffff021916908373ffffffffffffffffffffffffffffffffffffffff16021790555060208201518160000160146101000a81548160ff021916908360000b60ff16021790555060408201518160000160156101000a81548160ff021916908360000b60ff160217905550905050606060405190810160405280600073ffffffffffffffffffffffffffffffffffffffff1681526020017fffffffffffffffffffffffffffffffffffffffffffffffffffffffffffffffff60000b81526020017fffffffffffffffffffffffffffffffffffffffffffffffffffffffffffffffff60000b815250600260008201518160000160006101000a81548173ffffffffffffffffffffffffffffffffffffffff021916908373ffffffffffffffffffffffffffffffffffffffff16021790555060208201518160000160146101000a81548160ff021916908360000b60ff16021790555060408201518160000160156101000a81548160ff021916908360000b60ff1602179055509050506001600360106101000a81548160ff0219169083151502179055506000600360116101000a81548160ff0219169083151502179055506000601360006101000a81548173ffffffffffffffffffffffffffffffffffffffff021916908373ffffffffffffffffffffffffffffffffffffffff1602179055505600a165627a7a723058208a194017bb44372a2e1caf4f1505bd885dd24d098162ff027a40b4bb6a95d6300029",
  "source": "pragma solidity ^0.4.17;\n\n\ncontract Gobang {\n    address owner;\n\n    struct Player {\n    address id;\n    int8 lastX;\n    int8 lastY;\n    }\n\n    Player playerBlack;\n\n    Player playerWhite;\n\n    uint128 BET_MONEY = 1 ether;\n\n    bool isBlackPlay = true;\n\n    bool isPlaying = false;\n\n    uint8[15][15] chessboard;\n\n    address winner;\n\n    mapping (address => uint128) playersMoney;\n    // 三维数组记录横向，纵向，左斜，右斜的移动\n    int8[2][2][4] dir = [\n    [[int8(- 1), int8(0)], [int8(1), int8(0)]], // 横向\n    [[int8(0), int8(- 1)], [int8(0), int8(1)]], // 竖着\n    [[int8(- 1), int8(- 1)], [int8(1), int8(1)]], // 左斜\n    [[int8(1), int8(- 1)], [int8(- 1), int8(1)]]            // 右斜\n    ];\n\n\n    function Gobang() public {\n        //    constructor() public {\n        initGame();\n        owner = msg.sender;\n    }\n\n    function joinGame() public payable {\n        require(playerBlack.id == 0x0 || playerWhite.id == 0x0);\n        require(msg.value >= BET_MONEY);\n        if (playerBlack.id == 0x0) {\n            playerBlack.id = msg.sender;\n        }\n        else {\n            playerWhite.id = msg.sender;\n        }\n        if (playerBlack.id != 0x0 && playerWhite.id != 0x0) {\n            isPlaying = true;\n        }\n    }\n\n    function oneStep(int8 x, int8 y) public returns (address) {\n        bool isBlackStep = isBlackPlay && playerBlack.id == msg.sender;\n        bool isWhiteStep = !isBlackPlay && playerWhite.id == msg.sender;\n        require(chessboard[uint(x)][uint(y)] == 0 && (isBlackStep || isWhiteStep));\n\n        if (isBlackStep) {\n            chessboard[uint(x)][uint(y)] = 1;\n            playerBlack.lastX = x;\n            playerBlack.lastY = y;\n        }\n        else if (isWhiteStep) {\n            chessboard[uint(x)][uint(y)] = 2;\n            playerWhite.lastX = x;\n            playerWhite.lastY = y;\n        }\n\n        bool isWin = checkWinner(x, y);\n        if (isWin) {\n            if (isBlackPlay) {\n                winner = playerBlack.id;\n                playersMoney[playerWhite.id] -= BET_MONEY;\n                playersMoney[winner] += BET_MONEY;\n            }\n            else {\n                winner = playerWhite.id;\n                playersMoney[playerBlack.id] -= BET_MONEY;\n                playersMoney[winner] += BET_MONEY;\n            }\n            initGame();\n            return winner;\n        }\n        isBlackPlay = !isBlackPlay;\n        return 0x0;\n    }\n\n    function checkWinner(int8 x, int8 y) internal view returns (bool) {\n        uint8 max = 0;\n        int8 tempX = x;\n        int8 tempY = y;\n        for (uint i = 0; i < 4; i++) {\n            uint8 count = 1;\n            //j为0,1分别为棋子的两边方向，比如对于横向的时候，j=0,表示下棋位子的左边，j=1的时候表示右边\n            for (uint j = 0; j < 2; j++) {\n                bool flag = true;\n                // while语句中为一直向某一个方向遍历\n                // 有相同颜色的棋子的时候，Count++\n                // 否则置flag为false，结束该该方向的遍历\n                while (flag) {\n                    tempX = tempX + dir[i][j][0];\n                    tempY = tempY + dir[i][j][1];\n                    if (chessboard[uint(tempX)][uint(tempY)] == chessboard[uint(x)][uint(y)]\n                    && tempX >= 0 && tempX < 15 && tempY >= 0 && tempY < 15) {\n                        count++;\n                    }\n                    else {\n                        flag = false;\n                    }\n                }\n                tempX = x;\n                tempY = y;\n            }\n            if (count >= 5) {\n                max = 1;\n                break;\n            }\n            else {\n                max = 0;\n            }\n        }\n        return max == 1;\n    }\n\n    function getNewestState() public view returns (bool, bool, int8, int8, int8, int8) {\n        return (isPlaying, isBlackPlay, playerBlack.lastX, playerBlack.lastY, playerWhite.lastX, playerWhite.lastY);\n    }\n\n    function getMyMoney() public {\n        uint senderMoney = playersMoney[msg.sender];\n        require(senderMoney > 0 && address(this).balance >= senderMoney && playerBlack.id == 0x0);\n        address(msg.sender).transfer(senderMoney);\n    }\n\n    function initGame() private {\n        playerBlack = Player(0x0, - 1, - 1);\n        playerWhite = Player(0x0, - 1, - 1);\n        isBlackPlay = true;\n        isPlaying = false;\n        winner = 0x0;\n    }\n}\n",
  "sourcePath": "/Users/wangguigen/git/Gobang/contracts/Gobang.sol",
  "compiler": {
    "name": "solc",
    "version": "0.4.23+commit.124ca40d.Emscripten.clang"
  },
  "schemaVersion": "2.0.0",
  "updatedAt": "2018-09-24T03:41:46.066Z"
}